:100000000C943D110C9467110C9467110C946711BA
:100010000C9467110C9467110C9467110C94671180
:100020000C9467110C9467110C940BCE0C9488CE31
:100030000C9467110C9467110C9467110C94671160
:100040000C9467110C94AC7D0C9467110C9467119F
:100050000C9467110C9467110C94CE8C0C946ACD9F
:100060000C9467110C9467110C9467110C94671130
:100070000C9467110C9467110C9467110C94671120
:100080000C9467110C9467110C9467110C94671110
:100090000C9467110C946711F9CA25CB47CB47CB59
:1000A00047CB47CB47CB47CB47CB47CB47CB47CBC0
:1000B00047CB47CB3DCB35CB2DCB47CB47CB47CBE6
:1000C00047CB47CB47CB47CB1FCB05CB0DCB17CB74
:1000D000084AD73B3BCE016E84BCBFFDC12F3D6CAF
:1000E00074319ABD56833DDA3D00C77F11BED9E415
:1000F000BB4C3E916BAAAABE000000803F05A84CF5
:10010000CDB2D44EB93836A9020C50B991868808C0
:100110003CA6AAAA2ABE000000803F004E414E49DC
:100120004E495459494E46CDCCCC3D0AD7233C17B5
:10013000B7D13877CC2B329595E6241FB14F0A0002
:100140000020410000C84200401C4620BCBE4CCAF2
:100150001B0E5AAEC59D74446F6E6520736176693F
:100160006E672066696C652E0A004D3239002020CA
:10017000506C616E6E657242756666657242797426
:1001800065733A20002046726565204D656D6F727B
:10019000793A2000436F6D70696C65643A2046655A
:1001A0006220323420323032360A00207C20417501
:1001B00074686F723A20286E6F6E652C20646566D5
:1001C00061756C7420636F6E666967290A0032304E
:1001D00032332D30372D313800204C617374205567
:1001E0007064617465643A2000312E312E392E32EC
:1001F0000A004D61726C696E0020536F66747761FE
:1002000072652052657365740A00205761746368D3
:10021000646F672052657365740A002042726F77BD
:100220006E206F75742052657365740A00204578DE
:100230007465726E616C2052657365740A00506F4C
:1002400077657255700A0073746172740A00507297
:10025000696E7465722068616C7465642E206B69C8
:100260006C6C28292063616C6C6564210A004B4921
:100270004C4C45442E20004B494C4C206361757317
:10028000656420627920746F6F206D7563682069E2
:100290006E6163746976652074696D65202D2063D5
:1002A000757272656E7420636F6D6D616E643A2055
:1002B0000020746F6F206C6F6E67206578747275A4
:1002C00073696F6E2070726576656E7465640A007E
:1002D0006F6B00526573656E643A20003A004361AB
:1002E000703A0000011C1D13FF2FFFFFFF1E1F129D
:1002F00014FFFFFFFF202111FF24FFFFFFFFFFFF7F
:100300000E10FFFFFF22230DFFFFFF0E260FFF271A
:100310004163746976652045787472756465723AD4
:10032000200020453A00205A3A0020593A00583A15
:10033000002C20002C2000627573793A20706175C2
:1003400073656420666F7220696E7075740A00624E
:100350007573793A2070617573656420666F7220D9
:10036000757365720A00627573793A2070726F63F3
:10037000657373696E670A00486F6D652025732584
:1003800073257320666972737400206669727374D2
:100390000A005A0059005800486F6D652000204936
:1003A0006E76616C6964206578747275646572201C
:1003B00000656E7175657565696E67202200496E0E
:1003C00076616C69642065787472756465720A0080
:1003D0004E6F2063617365206C696768740A00451D
:1003E0004550524F4D204F4B0A004F66667365745F
:1003F00073206170706C696564004572723A2054B4
:100400006F6F206661722100546F6F2066617220E9
:1004100066726F6D207265666572656E63652070C9
:100420006F696E740A00496E76616C696420657844
:100430007472756465720A0020643A0020693A009B
:1004400020703A0020466C6F773A2000205A002036
:100450005900580020204D61783A2000205A002091
:100460005900580020204D696E3A20004F66660002
:100470004F6E2000536F667420656E6473746F70E6
:10048000733A2000205400205200416363656C657C
:10049000726174696F6E3A2050002F2F200054480B
:1004A00045524D414C5F50524F54454354494F4E75
:1004B000004155544F5245504F52545F53445F537F
:1004C000544154555300454D455247454E43595F9D
:1004D00050415253455200434153455F4C494748B0
:1004E000545F4252494748544E45535300544F4776
:1004F000474C455F4C494748545300534F46545767
:100500004152455F504F574552004255494C445F58
:1005100050455243454E54004C4556454C494E4774
:100520005F44415441005A5F50524F42450041558B
:10053000544F4C4556454C005052494E545F4A4F1B
:10054000420050524F4752455353004155544F5269
:1005500045504F52545F54454D5000564F4C554DE9
:10056000455452494300454550524F4D0053455262
:1005700049414C5F584F4E5F584F464600464952DE
:100580004D574152455F4E414D453A4D61726C6940
:100590006E20312E312E392E32202847697468752D
:1005A000622920534F555243455F434F44455F55A1
:1005B000524C3A68747470733A2F2F676974687577
:1005C000622E636F6D2F4D61726C696E4669726D3C
:1005D000776172652F4D61726C696E2050524F5475
:1005E0004F434F4C5F56455253494F4E3A312E3090
:1005F000204D414348494E455F545950453A334494
:10060000205072696E7465722045585452554445A5
:10061000525F434F554E543A3120555549443A6341
:10062000656465326132662D343161322D34373480
:10063000382D396231322D633535633632663336C3
:100640003766660A003344205072696E7465722002
:100650004F66662E004D31343520533C696E64651B
:10066000783E206F7574206F662072616E6765201A
:1006700028302D31290A004D3131332053006F6667
:10068000660044454255473A00B406AF06A806A1A5
:10069000069306434F4D4D554E49434154494F4EE5
:1006A0000044525952554E004552524F5253004940
:1006B0004E464F004543484F0020573A00452043DF
:1006C0006F6F6C696E672E2E2E0045204865617431
:1006D000696E672E2E2E004B494C4C45442E20004F
:1006E0006F6B0050726F7465637465642050696E3F
:1006F0000A005072696E742074696D653A20004377
:10070000757272656E742066696C653A2000456E7C
:10071000642066696C65206C6973740A00426567C1
:10072000696E2066696C65206C6973740A004E6F8F
:10073000206D6F76652E00436C69636B20746F20AB
:10074000726573756D652E2E2E00536C6565702E67
:100750002E2E0047322F4733206261642070617271
:10076000616D65746572730A005761726E696E67B8
:100770003A20486F6D696E672042756D702044693C
:100780007669736F72203C20310A000202045344E0
:100790002072656164206572726F720A00446F6E28
:1007A00065207072696E74696E672066696C650A8F
:1007B000004B494C4C45442E200053544F5050455B
:1007C000442E20005072696E7465722073746F70CD
:1007D0007065642064756520746F206572726F7235
:1007E000732E2046697820746865206572726F7276
:1007F00020616E6420757365204D39393920746F1E
:1008000020726573746172742E202854656D706552
:100810007261747572652069732072657365742ED8
:100820002053657420697420616674657220726556
:100830007374617274696E67290A004E6F20436891
:1008400065636B73756D2077697468206C696E657C
:10085000206E756D6265722C204C617374204C693A
:100860006E653A20004E6F20436865636B73756D4B
:100870002077697468206C696E65206E756D62659D
:10088000722C204C617374204C696E653A200063B1
:100890006865636B73756D206D69736D61746368F2
:1008A0002C204C617374204C696E653A20004C69B1
:1008B0006E65204E756D626572206973206E6F746F
:1008C000204C617374204C696E65204E756D6265B5
:1008D000722B312C204C617374204C696E653A2068
:1008E000004D3131300001FF010000A0400000A0A8
:1008F000400000A04000009643000062430000C892
:100900004300009643000000000000C8430000962A
:1009100043000062430000C84300000000000000E4
:100920000000000000000048420000484200004073
:1009300041000000002569730025696D2025697359
:10094000002569682025696D202569730025696483
:10095000202569682025696D20256973002569793E
:1009600020256964202569682025696D2025697323
:10097000007C3C3E5E2B3D3F2F5B5D3B2C2A225C86
:10098000004D33310043616E6E6F7420656E746587
:1009900072207375626469723A20006F70656E2010
:1009A0006661696C65642C2046696C653A2000615B
:1009B00075746F25692E67006572726F7220777289
:1009C0006974696E6720746F2066696C650A004EF1
:1009D0006F74205344207072696E74696E670A00E8
:1009E0005344207072696E74696E67206279746511
:1009F000200044656C6574696F6E206661696C6582
:100A0000642C2046696C653A200046696C65206458
:100A1000656C657465643A0057726974696E672025
:100A2000746F2066696C653A200046696C652073B6
:100A3000656C65637465640A002053697A653A20C1
:100A40000046696C65206F70656E65643A20002011
:100A500066696C653A2000667265736800646F6948
:100A60006E67004E6F772000454E4420535542522A
:100A70004F5554494E450A002220706F73002220C2
:100A8000706172656E743A2200535542524F55544C
:100A9000494E452043414C4C207461726765743A5D
:100AA00022004B494C4C45442E2000747279696EEB
:100AB0006720746F2063616C6C207375622D6763AF
:100AC0006F64652066696C6573207769746820744B
:100AD0006F6F206D616E79206C6576656C732E206A
:100AE0004D4158206C6576656C2069733A004D3233
:100AF00034004D3233202573005344206361726407
:100B0000206F6B0A006F70656E526F6F74206661A4
:100B1000696C65640A00766F6C756D652E696E6927
:100B200074206661696C65640A00534420696E69CB
:100B300074206661696C0A00286E6F2066696C65B6
:100B4000290043616E6E6F74206F70656E2073753F
:100B500062646972200020440020490020204D3347
:100B600030312050005049442073657474696E67B9
:100B7000733A0A0020460020420020480020204D01
:100B80003134352053004D6174657269616C2068A1
:100B9000656174757020706172616D6574657273E2
:100BA0003A0A00205A0020590020204D32303620C9
:100BB0005800486F6D65206F66667365743A0A0069
:100BC000204500205A0020590020580020540020C1
:100BD000530020204D32303520510020453C6D61BE
:100BE000785F655F6A65726B3E0020583C6D617886
:100BF0005F785F6A65726B3E20593C6D61785F7902
:100C00005F6A65726B3E205A3C6D61785F7A5F6AFD
:100C100065726B3E00416476616E6365643A205193
:100C20003C6D696E5F7365676D656E745F74696D49
:100C3000655F75733E20533C6D696E5F66656564E4
:100C4000726174653E20543C6D696E5F74726176AA
:100C5000656C5F66656564726174653E0020540072
:100C600020520020204D3230342050004163636513
:100C70006C65726174696F6E2028756E6974732F6C
:100C80007332293A20503C7072696E745F616363FD
:100C9000656C3E20523C726574726163745F61637F
:100CA00063656C3E20543C74726176656C5F616371
:100CB00063656C3E0A00204500205A002059002040
:100CC000204D3230312058004D6178696D756D20AE
:100CD000416363656C65726174696F6E2028756E1F
:100CE0006974732F7332293A0A00204500205A0094
:100CF00020590020204D3230332058004D61786952
:100D00006D756D2066656564726174657320287504
:100D10006E6974732F73293A0A00204500205A0027
:100D200020590020204D39322058005374657073CB
:100D30002070657220756E69743A0A0020204D3269
:100D400030302044300A0020204D32303020440022
:100D50002044697361626C65640A0046696C616D68
:100D6000656E742073657474696E67733A00202031
:100D70004D3134392043203B20556E69747320690E
:100D80006E2043656C736975730A00202047323109
:100D9000202020203B0048617264636F64656420FA
:100DA00044656661756C742053657474696E67730D
:100DB000204C6F616465640A0028230000581B0002
:100DC0000064000000102700000000FA430000FA51
:100DD000430000204100003442EC515542EC515593
:100DE00042000048448FC2BB42290A002062797445
:100DF00065733B2063726320002073746F726564B7
:100E00002073657474696E677320726574726965A6
:100E1000766564202800202863616C63756C6174BA
:100E2000656429210A0020213D2000454550524F8C
:100E30004D20435243206D69736D61746368202DAA
:100E4000202873746F7265642920002053697A65C5
:100E50003A2000496E6465783A2000204D61726C3A
:100E6000696E3D563536290A0028454550524F4D8A
:100E70003D00454550524F4D2076657273696F6E47
:100E8000206D69736D617463682000290A00206217
:100E9000797465733B2063726320005365747469D1
:100EA0006E67732053746F72656420280045455047
:100EB000524F4D206461746173697A652065727266
:100EC0006F722E0A004572726F72207772697469B0
:100ED0006E6720746F20454550524F4D210A002007
:100EE000286D6D29006F70656E0054524947474563
:100EF000524544003A20007A5F6D617800795F6D59
:100F0000696E00785F6D6178005265706F72746908
:100F10006E6720656E6473746F702073746174758E
:100F2000730A00456E6473746F7073202563202507
:100F30006320256320256300205A3A0020593A0097
:100F400020583A00656E6473746F7073206869741A
:100F50003A2000486F6D696E67206661696C656450
:100F600000556E6B6E6F776E20636F6D6D616E6492
:100F70003A20220020746F6F206C6F6E67206578B6
:100F800074727573696F6E2070726576656E7465C4
:100F9000640A006563686F3A004572726F723A00C6
:100FA000205A3A0020423A0020436F756E74204167
:100FB0003A00043700001E290000511B00005810A1
:100FC000000010090000CC0400007802000041017C
:100FD000000024F4D43050C38E20C2A24017828B6C
:100FE0007011127A910D816CD90AA861E108C75875
:100FF0006607615143061E4B5D05C145A7041A41B2
:101000001104093D9803713931034036DB02653321
:101010009102D4305402802E1D02632CEE01752AF9
:10102000C501B028A001102781018F2564012B2460
:101030004B01E0223401AC211F018D200D01801FE6
:10104000FC00841EED00971DDF00B81CD200E61BDB
:10105000C600201BBC00641AB200B219A8000A190D
:10106000A0006A189900D117910040178B00B5169F
:10107000840031167E00B31579003A157300C71449
:101080006F0058146A00EE1366008813630025137E
:101090005E00C7125B006C12570015125400C1119C
:1010A000510070114F0021114B00D61049008D10D6
:1010B00047004610440002104200C00F4000800F5D
:1010C0003E00420F3C00060F3B00CB0E3800930E53
:1010D00037005C0E3500270E3400F30D3200C10DD1
:1010E0003100900D3000600D2E00320D2D00050DE9
:1010F0002C00D90C2B00AE0C2900850C29005C0CAF
:101100002700350C27000E0C2600E80B2400C40B2A
:101110002400A00B23007D0B23005A0B2100390B68
:101120002100180B2000F80A1F00D90A1E00BB0A74
:101130001E009D0A1D00800A1D00630A1C00470A4C
:101140001B002C0A1B00110A1A00F7091A00DD09FE
:101150001900C4091900AB091900920917007B098D
:101160001800630917004C091600360916002009FB
:1011700016000A091500F5081500E0081400CC084F
:101180001400B8081400A4081400900813007D0887
:1011900012006B08130058081200460812003408A9
:1011A0001100230811001208110001081100F007B6
:1011B0001000E0071000D0071000C0071000B007B3
:1011C0000F00A107100091070E0083070F0074079E
:1011D0000F0065070E0057070E0049070E003B077A
:1011E0000D002E070E0020070D0013070D00060747
:1011F0000D00F9060C00ED060D00E0060C00D4060B
:101200000C00C8060C00BC060C00B0060C00A406BE
:101210000B0099060C008D060B0082060B0077066A
:101220000B006C060B0061060A0057060B004C060B
:101230000A0042060A0038060A002E060A002406A2
:101240000A001A060A001006090007060A00FD0532
:101250000900F4050900EB050900E2050900D905BC
:101260000900D0050900C7050900BE050900B5053C
:101270000800AD050800A50509009C0508009405B7
:1012800008008C050800840508007C05080074052A
:1012900008006C050700650508005D050700560598
:1012A00008004E05070047050700400508003805FF
:1012B0000700310507002A050700230507001C0564
:1012C0000600160507000F050700080506000205C1
:1012D0000700FB040600F5040700EE040600E8041E
:1012E0000600E2040700DB040600D5040600CF0474
:1012F0000600C9040600C3040600BD040600B704C6
:101300000600B1040500AC040600A6040600A00413
:1013100005009B04060095040500900406008A045D
:10132000050085040500800406007A0405007504A4
:101330000500700405006B040500660405006104E7
:1013400005005C04050057040500520405004D0427
:10135000050048040500430405003E0404003A0467
:10136000050035040500300404002C0405002704A2
:101370000400230405001E0404001A0404001604DB
:101380000500110404000D04040009040500040410
:10139000040000040400FC030400F8030400F40348
:1013A0000400F0030400EC030400E8030400E40379
:1013B0000400E0030400DC030400D8030400D403A9
:1013C0000400D0030400CC030400C8030300C503D9
:1013D000030024F404D9201BC40C5C0E9804C40937
:1013E0005F0265077101F405F900FB04B3004804CE
:1013F0008700C10369005803550003034500BE027E
:101400003A008402310053022A0029022500040216
:101410002000E4011C00C8011900AF011700980169
:1014200014008401130071011000610110005101CA
:101430000E0043010D0036010B002B010B002001B3
:101440000B00150109000C01090003010800FB0055
:101450000800F3000800EB000700E4000600DE00CF
:101460000600D8000600D2000600CC000500C70028
:101470000500C2000500BD000400B9000400B5006D
:101480000400B1000400AD000400A9000400A500A0
:101490000300A20003009F0004009B0003009800CB
:1014A00003009500020093000300900003008D00EC
:1014B00002008B0003008800020086000200840006
:1014C0000300810002007F0002007D0002007B001B
:1014D000020079000200770001007600020074002B
:1014E000020072000100710002006F0002006D0036
:1014F00001006C0002006A00010069000200670040
:101500000100660001006500010064000200620045
:10151000010061000100600001005F0002005D0049
:1015200001005C0001005B0001005A00010059004D
:10153000010058000100570001005600010055004D
:10154000010054000100530000005300010052004C
:10155000010051000100500001004F0001004E0049
:1015600000004E0001004D0001004C0001004B0046
:1015700000004B0001004A00010049000100480042
:10158000000048000100470001004600000046003E
:101590000100450000004500010044000100430037
:1015A0000000430001004200000042000100410031
:1015B000000041000100400001003F0000003F002A
:1015C00001003E0000003E0001003D0000003D0023
:1015D00001003C0000003C0000003C0001003B001A
:1015E00000003B0001003A0000003A000100390011
:1015F0000000390001003800000038000000380009
:1016000001003700000037000100360000003600FE
:1016100000003600010035000000350000003500F4
:1016200001003400000034000000340001003300E9
:1016300000003300000033000100320000003200DF
:1016400000003200010031000000310000003100D4
:1016500001003000000030000000300001002F00C9
:1016600000002F0000002F0000002F0001002E00BE
:1016700000002E0000002E0001002D0000002D00B3
:1016800000002D0000002D0001002C0000002C00A7
:1016900000002C0000002C0001002B0000002B009B
:1016A00000002B0000002B0001002A0000002A008F
:1016B00000002A0000002A00010029000000290083
:1016C0000000290000002900000029000100280076
:1016D000000028000000280000002800000028006A
:1016E000010027000000270000002700000027005D
:1016F0000000270001002600000026000000260050
:101700000000260000002600010025000000250042
:101710000000250000002500000025000000250035
:101720000100240000002400000024000000240028
:10173000000024000100230000002300000023001B
:10174000000023000000230000002300000023000D
:101750000100220000002200000022000000220000
:1017600000002200000022000100210000002100F2
:1017700000002100000021000000210000002100E5
:1017800000002100010020000000200000002000D7
:1017900000002000000020000000200000002000C9
:1017A0000000200001001F0000001F0000001F00BB
:1017B00000001F0000001F0000001F0000001F00AD
:1017C00001001E0000001E0000001E0000001E00A0
:1017D000000020403A00202F00546865726D616C53
:1017E0002052756E61776179004531205448455229
:1017F0004D414C2052554E41574159004B494C4C9C
:1018000045442E2000202D20496E76616C696420AD
:101810006578747275646572206E756D626572208C
:10182000210A0048656174696E67206661696C65AC
:10183000640045312048656174696E67206661699E
:101840006C6564004D494E54454D50207472696773
:101850006765726564004531204572723A204D49D2
:101860004E54454D50004D415854454D50207472D2
:1018700069676765726564004531204572723A2078
:101880004D415854454D50006265640A002C207348
:10189000797374656D2073746F707065642120486E
:1018A00065617465725F49443A2000236465666926
:1018B0006E652044454641554C545F4B64200023DF
:1018C000646566696E652044454641554C545F4BDE
:1018D00069200023646566696E652044454641556C
:1018E0004C545F4B702000504944204175746F7414
:1018F000756E652066696E69736865642120507530
:101900007420746865206C617374204B702C204BBC
:101910006920616E64204B6420636F6E7374616E26
:1019200074732066726F6D2062656C6F7720696ECC
:10193000746F20436F6E66696775726174696F6E4C
:101940002E680A00504944204175746F74756E65A5
:10195000206661696C6564212074696D656F7574BA
:101960000A00546865726D616C2052756E61776112
:101970007900453120544845524D414C2052554E36
:10198000415741590048656174696E672066616915
:101990006C65640045312048656174696E67206636
:1019A00061696C656400504944204175746F7475B9
:1019B0006E65206661696C6564212054656D706593
:1019C00072617475726520746F6F20686967680A48
:1019D00000204B643A2000204B693A2000204B70D5
:1019E0003A20000A20436C617373696320504944B4
:1019F000200A002054753A2000204B753A20002020
:101A00006D61783A2000206D696E3A200020643ABA
:101A1000200020626961733A2000504944204175DA
:101A2000746F74756E652073746172740A00504926
:101A300044204175746F74756E65206661696C65CC
:101A400064212054656D70657261747572652074CF
:101A50006F6F20686967680A0050494420417574B7
:101A60006F74756E65206661696C656421204261E2
:101A700064206578747275646572206E756D626538
:101A8000720A004D383420582059205A2045001041
:101A9000001900F03F1900052E2E000452656672F1
:101AA000657368004D61696E0046696C2E2044695B
:101AB000612E0046696C2E204469612E0045206924
:101AC0006E206D6D33004F6666004F6E2000436FD1
:101AD0006E74726F6C0053746570732F6D6D004A75
:101AE00065726B00416363656C65726174696F6EEA
:101AF0000056656C6F6369747900436F6E74726F22
:101B00006C004573746570732F6D6D00457374655B
:101B100070732F6D6D005A73746570732F6D6D0047
:101B20005A73746570732F6D6D005973746570739B
:101B30002F6D6D005973746570732F6D6D00587340
:101B4000746570732F6D6D005873746570732F6DAD
:101B50006D004D6F74696F6E0056652D6A65726B0E
:101B60000056652D6A65726B0056652D6A65726B4D
:101B700000567A2D6A65726B00567A2D6A65726B13
:101B80000056792D6A65726B0056792D6A65726B05
:101B90000056792D6A65726B0056782D6A65726BF6
:101BA0000056782D6A65726B0056782D6A65726BE7
:101BB000004D6F74696F6E00416D61782045004182
:101BC0006D6178204500416D6178205A00416D615A
:101BD00078205A00416D6178205900416D6178206C
:101BE0005900416D6178205800416D61782058009E
:101BF000412D74726176656C00412D747261766559
:101C00006C00412D7265747261637400412D7265C0
:101C1000747261637400416363656C004163636562
:101C20006C004D6F74696F6E005654726176206D52
:101C3000696E005654726176206D696E005654725A
:101C40006176206D696E00566D696E00566D696E25
:101C500000566D696E00566D6178204500566D61C5
:101C600078204500566D6178204500566D617820DA
:101C70005A00566D6178205A00566D6178205A00DE
:101C8000566D6178205900566D6178205900566D67
:101C90006178205900566D6178205800566D617842
:101CA000205800566D61782058004D6F74696F6E32
:101CB0000053746F72652073657474696E67730086
:101CC0004E6F7A7A6C65004E6F7A7A6C65004E6F53
:101CD0007A7A6C650046616E2073706565640046B3
:101CE000616E2073706565640046616E2073706577
:101CF00065640054656D706572617475726500503D
:101D00007265686561742041425320636F6E66009E
:101D10005072656865617420504C4120636F6E6637
:101D2000005049442D44005049442D44005049443A
:101D30002D49005049442D49005049442D50005030
:101D400049442D5000200220466163740020022087
:101D500046616374002002204D6178002002204D0E
:101D60006178002002204D6178002002204D696ECC
:101D7000002002204D696E002002204D696E004156
:101D800075746F74656D70004F6666004F6E20004D
:101D900046616E2073706565640046616E207370E5
:101DA0006565640046616E207370656564004E6F02
:101DB0007A7A6C65004E6F7A7A6C65004E6F7A7A2B
:101DC0006C6500436F6E74726F6C00496E69746964
:101DD000616C697A6520454550524F4D00436F6EE6
:101DE00074726F6C00496E697469616C697A652000
:101DF000454550524F4D00526573746F72652066B1
:101E000061696C73616665004C6F61642073657411
:101E100074696E67730053746F72652073657474B0
:101E2000696E67730046696C616D656E74004D6F15
:101E300074696F6E0054656D70657261747572655A
:101E4000004D61696E004578747275646572004D6D
:101E50006F7665205A004D6F76652059004D6F767C
:101E60006520580050726570617265004D6F76652F
:101E700020302E316D6D004D6F766520316D6D0017
:101E80004D6F76652031306D6D004D6F7665206148
:101E9000786973004578747275646572004D6F7669
:101EA00065205A004D6F76652059004D6F7665208C
:101EB00058004578747275646572004D6F766520C0
:101EC0005A004D6F76652059004D6F766520580099
:101ED00050726568656174204142530050726568B4
:101EE00065617420504C4100436F6F6C646F776E76
:101EF0000044697361626C6520737465707065720B
:101F000073004D38340053657420686F6D65206F21
:101F1000666673657473004175746F20686F6D65D4
:101F200000473238004D6F76652061786973004D47
:101F300061696E00466C6F7700466C6F7700466C87
:101F40006F770046616E2073706565640046616E50
:101F50002073706565640046616E2073706565640A
:101F6000004E6F7A7A6C65004E6F7A7A6C65004E1F
:101F70006F7A7A6C650053706565640053706565AF
:101F800064005370656564004D61696E004D3432C4
:101F90003800496E69742E205344206361726400D6
:101FA0004D3231004E6F2053442063617264004310
:101FB00068616E67652053442063617264004D322E
:101FC00031005072696E742066726F6D2053440048
:101FD00053746F70207072696E7400526573756D02
:101FE00065207072696E740050617573652070723F
:101FF000696E7400436F6E74726F6C00507265701E
:102000006172650054756E6500496E666F2073637A
:102010007265656E005072696E742061626F7274D1
:102020006564003344205072696E74657220526595
:102030006164792E005072696E74696E672E2E2E5F
:10204000005072696E7420706175736564002D2D87
:102050002D00534400506C65617365207265736593
:1020600074005052494E5445522048414C54454406
:1020700000001C1F11111F00000006191803130C8B
:1020800000040E1F041C000000000E1315110E00AA
:10209000001C10181705060500040A0A0A0A111187
:1020A0000E0C12120C00000000001F1511151F006D
:1020B0000000000000010204040000001C1C0C04CD
:1020C00004040201000000000004081000000000E9
:1020D000002D2D2D2D2D2D007C4D61726C696E7C97
:1020E000002D2D2D2D2D2D00687474703A2F2F6D1D
:1020F00061726C696E66772E6F72670068747470B7
:102100003A2F2F6D61726C696E66772E6F72670061
:1021100020312E312E392E32002020202000202088
:10212000202020200025753A2530327500253032D8
:10213000753A253032750001290229042908291031
:1021400029202940298029012C022C01260226045D
:102150002608261026202640268026402C802C018A
:102160002302230423082310232023402380230158
:102170002002200420082010202020402080201051
:102180002C202C012F022F042F082F102F202F403E
:102190002F802F7EFE7EFD7EFB7EF77EEF7EDF7E34
:1021A000BF7E7F00010000542212000200001122B5
:1021B00043000300000D220401030904F321180267
:1021C000030904DB211603030904CD210C0C0331A0
:1021D0000032003300340035000000160355005370
:1021E0000042002000530065007200690061006C2D
:1021F00000000018035400650065006E007300794C
:10220000006400750069006E006F0000000403099F
:102210000409024300020100C03209040000010267
:10222000020100052400100105240100010424021C
:102230000605240600010705820308004009040181
:1022400000020A00000007050302400000070584A1
:10225000024000001201000202000020C0168304A8
:102260007202010203010001C102018036018136C0
:10227000C428F770DD9CD5D1C82811241FBECFEF2C
:10228000D0E2DEBFCDBF12E0A0E0B1E0E4E2FCEBC3
:1022900001E00BBF02C007900D92A632B107D9F73B
:1022A00020E1A6E2B2E001C01D92A437B207E1F737
:1022B00011E1CCE3D1E104C02197FE010E9476D266
:1022C000C833D107C9F70E948BCA0C9405DE0C9461
:1022D00000008CE0E2E9F2E0A8E8B4E001900D92A1
:1022E0008A95E1F70895CF93DF931F92CDB7DEB7BC
:1022F0006983DC01ED91FC910280F381E02D41E0E6
:1023000050E0BE016F5F7F4F09950F90DF91CF9135
:102310000895FF920F931F93CF93DF93F82E092F09
:10232000162FEEEDF2E06491EF012196662329F07D
:1023300088E690E1D8DFFE01F6CFEF2DF02F649113
:10234000EF012196662329F088E690E1CCDFFE01BB
:10235000F6CFECEDF2E06491EF012196662329F0CF
:1023600088E690E1C0DFFE01F6CF412F50E060E04B
:1023700070E088E690E10E94D7C96AE088E690E1C3
:10238000DF91CF911F910F91FF90ADCFFC01238181
:1023900021110C94324008952F923F924F925F92F8
:1023A0006F927F928F929F92AF92BF92CF92DF9265
:1023B000EF92FF920F931F93CF93DF93EB01FC01FA
:1023C00080809180A280B380C501B40120E831E50E
:1023D00041E050E00E9438D2C9016DE671E00E94F0
:1023E00011D26B017C01C501B40120E13EE040E067
:1023F00050E00E9438D2CA01B90128E130E040E043
:1024000050E00E9438D2362E272E062F172F8CE34D
:10241000482E512C612C712CC501B401A3019201ED
:102420000E9438D2B62EA72ECA01B901A30192018B
:102430000E9438D2CB01C114D104D9F0AF92BF921F
:102440007F936F932F923F92FF92EF92DF92CF9202
:102450008DE599E09F938F93DF93CF930E94D9DA14
:102460008DB79EB70E960FB6F8949EBF0FBE8DBF68
:102470005CC0E114F104C9F0AF92BF927F936F93F7
:102480002F923F92FF92EF928DE499E09F938F936A
:10249000DF93CF930E94D9DAEDB7FEB73C960FB623
:1024A000F894FEBF0FBEEDBF40C0012BB9F0AF9254
:1024B000BF927F936F932F923F9281E499E09F9315
:1024C0008F93DF93CF930E94D9DA8DB79EB70A9688
:1024D0000FB6F8949EBF0FBE8DBF27C0892BA9F001
:1024E000AF92BF927F936F9389E399E09F938F930D
:1024F000DF93CF930E94D9DAEDB7FEB738960FB6C7
:10250000F894FEBF0FBEEDBF10C0AF92BF9285E33F
:1025100099E09F938F93DF93CF930E94D9DA0F9026
:102520000F900F900F900F900F90DF91CF911F9110
:102530000F91FF90EF90DF90CF90BF90AF909F9062
:102540008F907F906F905F904F903F902F90089565
:1025500081548A3108F041C0E82FF0E040914209EF
:1025600050914309609144097091450904C07695E2
:102570006795579547958A95D2F7842F817040FFCC
:1025800033C0E85DF64F9081992301F1E0914D0948
:10259000F0914E09E90FF11D908120ED290F2A30AD
:1025A00080F09E3229F4918190539A3078F409C0DA
:1025B0009D3211F09B3251F4918120ED290F2A3088
:1025C00018F42E2F9F2F04C09E3249F020E090E097
:1025D0002093490990934A09089580E008959281D3
:1025E00090539A3098F7EDCF0895B2DF882341F0E9
:1025F00081E02091490930914A09232B09F480E0B8
:1026000008950F931F93CF938091490990914A09A0
:10261000009711F1FC018F01C1912C2F2F7DA9F0A2
:10262000C53411F0C536B9F7F801108260E070E0EA
:102630008091490990914A090E9480D6F801C0838F
:10264000562F472F382F292F0BC060E070E0CF9115
:102650001F910F910C9480D650E040E030E020E0D4
:10266000652F742F832F922FCF911F910F91089573
:102670008091490990914A09009731F04AE050E071
:1026800060E070E00C94D3D760E070E0CB01089577
:102690008091490990914A09009731F04AE050E051
:1026A00060E070E00C94FED860E070E0CB0108952B
:1026B000DFDF97FD0AC0DCDF6F3F71058105910503
:1026C00009F02CF4D5DF862F089580E008958FEF70
:1026D00008958091490990914A09892B31F0E8DFEA
:1026E00091E0811103C090E001C091E0892F08952D
:1026F00024E934E040E954E06CE874E088E894E0D0
:102700000C944C6F2F923F924F925F926F927F92F8
:102710009F92AF92BF92CF92DF92EF92FF920F9370
:102720001F93CF93DF93CDB7DEB728970FB6F894FA
:10273000DEBF0FBECDBF1A012B01922EF32EC82E85
:10274000D12CF601EA51F74FE491AA24A3941E1666
:102750000CF4A12CBB24B39420E030E0A901C20109
:10276000B1010E947BD518160CF0B12CCC0CDD1CED
:10277000CC0CDD1CC60188579B4F3C01FC0110822C
:10278000118212821382B4DFF301208231824282ED
:102790005382E090AC0220E030E0A901B801892D1D
:1027A0009F2D0E9478D381110AC0F601EB5DF64F90
:1027B00085919591A591B4918C019A2EFB2EC8011B
:1027C000A92DBF2D8D839E83AF83B88719821A826E
:1027D0001B821C82CE0101966C018E010B5F1F4F84
:1027E00024E934E040E954E06CE874E088E894E0DF
:1027F0000E94B87B0E94E26EAB100E940265289690
:102800000FB6F894DEBF0FBECDBFDF91CF911F9101
:102810000F91FF90EF90DF90CF90BF90AF909F907F
:102820007F906F905F904F903F902F90089564E954
:1028300074E083E00C94F86F10926D0410926B04B6
:1028400010926C04089590916B04E92FF0E0E25728
:10285000FD4F80839F5F943018F490936B0402C007
:1028600010926B0480916D048F5F80936D040895C6
:10287000CF93FC0120812B33A1F020916D042430F3
:1028800080F4C62FBC0180916B04F0E68F9FC001DD
:10289000112485519D4F0E94AADA8C2FD4DF81E04C
:1028A00001C080E0CF910895EF92FF921F93CF93E4
:1028B000DF937C0160E0DCDF182F8823C9F0E3E9B7
:1028C000FFE06491EF012196662329F088E690E10C
:1028D0000ADDFE01F6CFB70181EB93E00E94DB7CBD
:1028E00062E288E690E1FFDC6AE088E690E1FBDCEA
:1028F000812FDF91CF911F91FF90EF900895DF928C
:10290000EF92FF920F931F93CF93DF93CDB7DEB774
:102910006E970FB6F894DEBF0FBECDBF6091E9028F
:102920007091EA026115710541F14DE150E0CE016F
:1029300001967C010E9439DA1E8EF7018F010E1973
:102940001F09D190DD2019F09AE0D912F7CFF701D5
:10295000E00FF11F1082C701A7DF882371F0DD208F
:10296000A9F00F5F1F4F8091E9029091EA02080FD2
:10297000191F1093EA020093E90281E02091E90215
:102980003091EA02232B29F480E003C000E010E03C
:10299000F0CF6E960FB6F894DEBF0FBECDBFDF91BD
:1029A000CF911F910F91FF90EF90DF90089590933A
:1029B000EA028093E902A3CF8F929F92AF92BF92D7
:1029C000CF92DF92EF92FF920F931F93CF93DF93FB
:1029D00080919B04882309F4E0C080916D048111EB
:1029E00002C01092270201E04091040750910507B0
:1029F0006091060770910707809108079091090779
:102A0000A0910A07B0910B0784179507A607B7078F
:102A100008F400E0C0E0D0E0DD24D39480E6C82EC6
:102A200080916D04843008F0B8C00111B6C0809167
:102A300027028111B2C080915F0690916006A0913B
:102A40006106B09162068093080790930907A093EE
:102A50000A07B0930B0787E596E00E94893E182F7E
:102A60008090080790900907A0900A07B0900B0784
:102A70004091040750910507609106077091070780
:102A800001E084169506A606B70608F400E0841651
:102A90009506A606B706A0F48F3F2FEF920731F1F7
:102AA0001A3009F448C01D3009F445C0133219F03A
:102AB0001A3309F057C020912602211153C032C0A9
:102AC00089E994E00E94BE5380919B0481112DC03E
:102AD000EDE9F7E064917F018FEFE81AF80A6623C9
:102AE00009F188E690E1FFDBF701F4CFE9E9FFE0C7
:102AF00064917F012FEFE21AF20A662329F088E63B
:102B000090E1F1DBF701F4CFEEE8F7E064917F01AB
:102B10008FEFE81AF80A662329F088E690E1E3DBF4
:102B2000F701F4CF133239F404C0133299F5C0E041
:102B3000D0E0D092270210922602209729F40E941A
:102B4000C78BC0E0D0E06CCF80916B04C89EC00DF5
:102B5000D11D1124C551DD4F188280E074DEC0E024
:102B6000D0E05ECFCF35D10508F05ACF1B3311F43A
:102B7000D092260220912602211152CF90916B040F
:102B8000FE01C99EE00DF11D1124E551FD4F80832A
:102B9000219646CF10922602D2CFDF91CF911F917E
:102BA0000F91FF90EF90DF90CF90BF90AF909F90EC
:102BB0008F900895EF92FF920F931F93CF93DF931F
:102BC0007C0184E512DDD82F882369F171DDC82FDF
:102BD00018162CF5E3E9FFE064918F010F5F1F4F9A
:102BE000662329F088E690E17EDBF801F5CF6DE4FD
:102BF00088E690E178DBA70160E070E020E088E6FD
:102C000090E10E946BC96C2FCC0F770B8EE993E09B
:102C10000E945C7C6AE088E690E165DB08C08093F6
:102C20009E02D0E004C08091AC0280939E028D2F62
:102C3000DF91CF911F910F91FF90EF9008950F9327
:102C40001F93CF93DF9394E0899FE00111248E01BD
:102C500005541D4FFE01E953FD4FDE01AD52BD4F3E
:102C60002D913D914D915C91608171818281938123
:102C70000E949FD2F8016083718382839383FE0157
:102C8000E75EF64F85919591A591B491FE01E155CE
:102C9000FD4F80839183A283B383FE01E35FF64FF0
:102CA00085919591A591B491C95FDE4F88839983F1
:102CB000AA83BB83DF91CF911F910F9108954F920B
:102CC0005F926F927F928F929F92AF92BF92DF92AC
:102CD000EF92FF920F931F93CF93DF93D82EC82FBD
:102CE000D0E0FE01EA51F74F64917E01EE0CFF1C2B
:102CF000EE0CFF1CF701EB50F74F45905590659097
:102D00007490062E000C770B880B990B0E941AD436
:102D10004B015C0120E030E040EC5FE3C301B20115
:102D20000E94B6D5A50194010E94B6D5AB01BC01A5
:102D300000E010E098018D2DE5DCF701E751F74F39
:102D40002591359145915491C501B4010E94B6D5A4
:102D50004B015C0120E030E0A9010E9478D3882378
:102D600009F447C000E010E09801B501A4017058D3
:102D70008D2DC8DCFE01E557F84F6491611119C033
:102D8000E3E9FFE06491EF012196662329F088E6EC
:102D900090E1A9DAFE01F6CFE9E6F7E06491EF01F0
:102DA0002196662329F088E690E19DDAFE01F6CFB0
:102DB0006AE0F701EB5DF64F459055906590749091
:102DC00070E080E090E00E941AD49B01AC01C30146
:102DD000B2010E947FD32B013C01A5019401C501E2
:102DE000B4010E949FD2AB01BC01930182018D2DE1
:102DF00089DC81E090E00D2C01C0880F0A94EAF78D
:102E000090917604982B9093760490917704892B77
:102E100080937704F701ED52FD4F108211821282E8
:102E200013828D2D0CDFF701EF5FF64F85919591A1
:102E3000A591B491E701C857DB4F88839983AA8392
:102E4000BB8356DCF701E858FB4F88819981AA8142
:102E5000BB8180839183A283B383DF91CF911F9144
:102E60000F91FF90EF90DF90BF90AF909F908F9069
:102E70007F906F905F904F900895CF92DF92EF9286
:102E80000F931F93CF93DF9300D000D0CDB7DEB761
:102E9000E090AC0219821A821B821C82CE0101963C
:102EA0006C0105E111E024E934E040E954E06CE80C
:102EB00074E088E894E00E94B87B0F900F900F9028
:102EC0000F90DF91CF911F910F91EF90DF90CF90F6
:102ED00008952F923F924F925F926F927F928F92BE
:102EE0009F92AF92BF92CF92DF92EF92FF920F9399
:102EF0001F93CF93DF93CDB7DEB72A970FB6F89421
:102F0000DEBF0FBECDBF2B013C012D833E834F831F
:102F1000588747015801DA86C9868091150190913A
:102F20001601A0911701B091180189839A83AB8390
:102F3000BC83D6011C9111960C91119712963C906E
:102F4000129713962C9020E030E0A901612F702F8A
:102F5000832D922D0E9478D381110AC0EDE2F9E011
:102F600085919591A591B491182F092F3A2E2B2E6A
:102F7000A501940160919004709191048091920454
:102F8000909193040E9478D387FF15C0812F902FD2
:102F9000A32DB22D8093150190931601A0931701D4
:102FA000B09318018092900490929104A0929204A0
:102FB000B092930462DFE985FA85C080D180E28017
:102FC000F38020E030E0A901C701B6010E9478D368
:102FD000811107C085E5C82EDC2C85E0E82E83E44E
:102FE000F82EC0921501D0921601E0921701F092CE
:102FF0001801409288045092890460928A04709269
:103000008B048D819E81AF81B88580938C049093D1
:103010008D04A0938E04B0938F042FDF2091900431
:10302000309191044091920450919304C501B401F0
:103030000E9478D387FF15C0812F902FA32DB22D2A
:103040008093150190931601A0931701B093180176
:103050008092900490929104A0929204B092930472
:103060000CDF0E94E26E89819A81AB81BC818093E2
:10307000150190931601A0931701B09318012A9699
:103080000FB6F894DEBF0FBECDBFDF91CF911F9179
:103090000F91FF90EF90DF90CF90BF90AF909F90F7
:1030A0008F907F906F905F904F903F902F900895FA
:1030B000CF92DF92EF92FF920F931F936B01FC016F
:1030C000E080F18002811381E8E8F4E02481358119
:1030D000468157816081718182819381FADE1F91DF
:1030E0000F91FF90EF90DF90CF90089580911501A0
:1030F00090911601A0911701B09118018093E502FB
:103100009093E602A093E702B093E8028091130146
:10311000909114019093E4028093E30284E690E09E
:10312000909314018093130108958091E50290918A
:10313000E602A091E702B091E80280931501909316
:103140001601A0931701B09318018091E3029091AA
:10315000E40290931401809313010895EF92FF927B
:103160001F93CF93DF93882329F0D0917704D095D4
:10317000D17001C0D0E0662339F010917704169524
:10318000117081E0182701C010E0442341F0C09184
:103190007704C2FB882780F9C1E0C82701C0C0E0DE
:1031A000D11102C0112319F0E3E9FFE007C0C111FA
:1031B000FBCF84C088E690E196D8F70164917F0147
:1031C0008FEFE81AF80A6111F5CFE8E9F3E06491AE
:1031D0007F019FEFE91AF90A662329F088E690E15A
:1031E00082D8F701F4CFDD2371F0E6E9F3E06491D2
:1031F0007F018FEFE81AF80A662329F088E690E14C
:1032000072D8F701F4CF112371F0E4E9F3E064918F
:103210007F019FEFE91AF90A662329F088E690E119
:1032200062D8F701F4CFCC2319F0E2E9F3E003C050
:10323000EAE8F3E00CC064917F018FEFE81AF80A26
:103240006623B1F388E690E14ED8F701F4CF64919C
:103250007F019FEFE91AF90A662329F088E690E1D9
:1032600042D8F701F4CFCC2319F044EC51E002C06E
:103270004EEE51E0112319F026EC31E002C02EEEA3
:1032800031E0DD2319F088EC91E002C08EEE91E090
:103290005F934F933F932F939F938F9388E793E090
:1032A0009F938F931F920E94729A8DB79EB7099633
:1032B0000FB6F8949EBF0FBE8DBFC1E08C2FDF917B
:1032C000CF911F91FF90EF9008959F92AF92BF9280
:1032D000CF92DF92EF92FF920F931F93CF93DF93E2
:1032E0008DEDA82E81E0B82E08E714E0C8E8D4E000
:1032F0009BEBC92E92E0D92E2FEDE22E22E0F22E8A
:10330000912CF50181915F0123D9882301F179D9AD
:10331000F7012081211104C02091AB02222339F052
:10332000288139814A815B810E949FD20AC0F3E0E3
:103330009F1639F0F60120813181428153810E942C
:103340009ED2F801608371838283938309C0888150
:103350009981AA81BB81F80180839183A283B38381
:1033600093940C5F1F4F2496F4E0CF0ED11C2FEFE7
:10337000E21AF20A84E09812C4CF86E436D9882390
:10338000B9F03FD920E030E0A9010E947BD51816A2
:103390007CF437D920E030E040E752E40E947FD34C
:1033A0006093150170931601809317019093180193
:1033B000DF91CF911F910F91FF90EF90DF90CF9011
:1033C000BF90AF909F900895CF92DF92EF92FF92BF
:1033D0000F931F93CF93DF930FB6F894C0905D10B7
:1033E000D0905E10E0905F10F09060100FBE809162
:1033F000A902811174C080910001882309F46FC073
:1034000080918D02882309F46AC04091890250910D
:103410008A0260918B0270918C0297018601041BD5
:10342000150B260B370B37FD6DC0833031F134F4AB
:1034300081300CF454C0E3E9FFE006C0843009F0A9
:103440004EC0E3E9FFE033C06491EF0121966623AB
:1034500031F088E690E10E947311FE01F5CFE6E6B7
:10346000F3E06491EF012196662309F438C088E601
:1034700090E10E947311FE01F4CFE3E9FFE0649153
:10348000EF012196662331F088E690E10E947311E6
:10349000FE01F5CFEFE4F3E06491EF01219666239E
:1034A000F1F088E690E10E947311FE01F5CF64917E
:1034B000EF012196662331F088E690E10E947311B6
:1034C000FE01F5CFE7E3F3E06491EF012196662377
:1034D00031F088E690E10E947311FE01F5CF209152
:1034E000000130E0A8EEB3E00E947FD2C60ED71EE6
:1034F000E81EF91EC0928902D0928A02E0928B02E5
:10350000F0928C02DF91CF911F910F91FF90EF907D
:10351000DF90CF9008950F931F93CF93DF93CDB794
:10352000DEB769970FB6F894DEBF0FBECDBF0E941D
:10353000CC866E8B7F8B888F998FBE016F5F7F4F9C
:10354000CE0146960E94CC1160E0CE0101960E9409
:10355000D299E3E9FFE064918F010F5F1F4F66236B
:1035600031F088E690E10E947311F801F4CFBE01BA
:103570006F5F7F4F82EF96E00E94DB7C6AE088E617
:1035800090E10E94731169960FB6F894DEBF0FBEEA
:10359000CDBFDF91CF911F910F910895CF9380916F
:1035A0009B0481110E94E26E80919C04882389F122
:1035B00080E51BD8882319F08CD8C82F04C080E57B
:1035C0000E94A812C82F60914B0970914C092C2FB2
:1035D00041E089E994E00E94674F83E506D888239B
:1035E00079F046D8AB01BC01409308075093090716
:1035F00060930A0770930B0787E596E00E944E3FA1
:1036000089E994E00E94A34CC11103C0CF910C94AE
:103610000B87CF910895CF93DF93E9E9FFE06491A1
:10362000EF012196662331F088E690E10E94731144
:10363000FE01F5CFE3EEF6E06491EF0121966623FB
:1036400031F088E690E10E947311FE01F5CFDF9121
:10365000CF9108950F931F93CF9383E50E94F512A6
:10366000882309F43DC024D8082F80E50E94F51274
:103670008823B1F11DD8C82F87FD32C089E40E948C
:10368000F512882331F025D8811112C0E3EEF2E063
:103690000BC089E40E94A81281110AC0F7CF3196AD
:1036A00083E0E031F80721F08491C813F8CF14C00B
:1036B0008C2F0E94D8CAEC2FF0E0002E0E947DCB08
:1036C00010E0B8018C2F0E94E9CAC03149F4109370
:1036D000AE020093AD0204C0CF911F910F919BCF1A
:1036E000CF911F910F910895CF93DF9388E690E0DB
:1036F00061DA81112FC08091980483FD2BC083E58E
:103700000E94F512882311F10E940113C091380123
:10371000D09139012F970E94E7D39E016C177D0746
:103720000CF49B013093A40F2093A30F80E00E9420
:10373000DA890E94011320E030E0A9010E9478D3C9
:10374000181624F00E9475860E94329ADF91CF915C
:103750000C94C770DF91CF910895CF92DF92EF92D2
:10376000FF9283E50E94F512882321F10E945813ED
:103770008D3308F08CE38093620F0FB6F894C090FD
:103780005D10D0905E10E0905F10F09060100FBE62
:10379000282F30E0A8EEB3E00E947FD2C60ED71EDD
:1037A000E81EF91EC0925E0FD0925F0FE092600F8C
:1037B000F092610FFF90EF90DF90CF90089580E539
:1037C0000E94F512811106C083E50E94F51288233C
:1037D00059F005C00E94581381110CC0F5CF0E940A
:1037E00038136F3F710510F06FEF70E07093AE0209
:1037F0006093AD020895DF92EF92FF920F931F93B3
:10380000CF93DF9383E50E94A812882359F083E5C4
:103810000E94F512882319F00E94581301C080E01D
:1038200080939804E3E9FFE06491EF012196662319
:1038300031F088E690E10E947311FE01F5CFE2E8D5
:10384000F6E06491EF012196662331F088E690E17D
:103850000E947311FE01F5CF809198048823A9F18D
:1038600089E8E82E86E0F82E00E010E020E0809164
:10387000980490E0002E02C0959587950A94E2F78F
:1038800080FF1AC0DD24D394D20E222329F06CE2EB
:1038900088E690E10E947311F70185919491FC01F3
:1038A0006491EF012196662331F088E690E10E9451
:1038B0007311FE01F5CF2D2D0F5F1F4F82E0E80E33
:1038C000F11C0530110599F60DC0EEE7F6E06491A4
:1038D000EF012196662331F088E690E10E94731192
:1038E000FE01F5CF6AE088E690E1DF91CF911F916C
:1038F0000F91FF90EF90DF900C947311CF93DF93B3
:1039000083E50E94F512882351F00E9458138D33ED
:1039100008F08CE380930001DF91CF910895E3E9F3
:10392000FFE06491EF012196662331F088E690E193
:103930000E947311FE01F5CF4091000150E060E05C
:1039400070E087E796E00E94BA7C6AE088E690E142
:10395000DF91CF910C947311CF93DF9383E50E9495
:10396000F512882321F00E943813EB0102C0C0E059
:10397000D0E0DD27C230D105D4F0E9E9FFE0649161
:10398000EF012196662331F088E690E10E947311E1
:10399000FE01F5CFE5E5F6E06491EF01219666239F
:1039A000C9F188E690E10E947311FE01F5CF88E429
:1039B0000E94F5128823A9F00E943813FE01EE0F31
:1039C000FF1FE65EFF4E71836083653081E07807FC
:1039D00014F064E071E077FF02C060E070E0718392
:1039E000608386E40E94F5128823A1F00E943813B8
:1039F000CC0FDD1FCE5EDF4E798368836F3F71058C
:103A000019F014F06FEF70E077FF02C060E070E033
:103A100079836883DF91CF9108954F925F926F927F
:103A20007F92AF92BF92CF92DF92EF92FF920F936D
:103A30001F93CF938DEDA82E81E0B82E02EC19E0F4
:103A4000C0E0F50181915F010E94A812882309F46A
:103A50006DC0C33009F063C00E9401136B017C018B
:103A600020E030E040EA51E40E9478D387FF4EC066
:103A7000A70196016091CE097091CF098091D0097C
:103A80009091D1090E947FD32B013C019B01AC0195
:103A900060919A0970919B0980919C0990919D0970
:103AA0000E94B6D560939A0970939B0980939C09F4
:103AB00090939D09A30192016091DE097091DF0945
:103AC0008091E0099091E1090E94B6D56093DE09EA
:103AD0007093DF098093E0099093E1096091F20906
:103AE0007091F3098091F4099091F5090E9418D41E
:103AF000A30192010E94B6D50E94ECD36093F20913
:103B00007093F3098093F4099093F509C092CE095C
:103B1000D092CF09E092D009F092D10907C00E945B
:103B20000113F8016083718382839383CF5F0C5FFD
:103B30001F4FC43009F085CFCF911F910F91FF9097
:103B4000EF90DF90CF90BF90AF907F906F905F909D
:103B50004F900C94A3700F931F93CF93DF93C8E8FB
:103B6000D4E00BEB12E0F8012081318142815381D6
:103B7000688179818A819B810E949FD2AB01BC01BF
:103B80008EE293E00E94997CF80124813581468180
:103B900057816C817D818E819F810E949FD2AB0174
:103BA000BC018AE293E00E94997CF801208531856E
:103BB00042855385688579858A859B850E949FD239
:103BC000AB01BC0186E293E00E94997C4C855D8547
:103BD0006E857F8582E293E00E94997CDF91CF9190
:103BE0001F910F910C94EF858F929F92AF92BF928D
:103BF000FF920F931F93CF93DF9300D000D0CDB7E8
:103C0000DEB7182F809176048770873079F48FE4BF
:103C10000E94F512882329F00E946913811192C035
:103C200005C08FE40E94A81281118CC00E94E26E30
:103C30005DDA81E00E94FA6411111BC088E50E94E0
:103C4000A812F82E89E50E94A812082F8AE50E9482
:103C5000A812F11007C001110AC0811108C0F02E8E
:103C600011E00CC0002319F0F02E182F07C010E04F
:103C700005C001E0FF24F39481E011E090E1E8E861
:103C8000F4E0A8E7B4E001900D929A95E1F71111E4
:103C900002C0882311F082E012D882E50E94F5125A
:103CA000882361F00E9401134B015C0120E030E0A9
:103CB000A9010E9478D3882369F106C0812C912C38
:103CC00080EAA82E80E4B82E111104C0F11002C0C1
:103CD000002379F18092800490928104A092820462
:103CE000B0928304A50194016091900470919104B5
:103CF00080919204909193040E9478D387FF0AC028
:103D000019821A821B821C82BE016F5F7F4F80E87E
:103D100094E0CED9111105C0F11003C0011106C005
:103D200008C080E00E945F161123C1F381E00E9469
:103D30005F160E9478130E94FD64F7D983E0809398
:103D40003F0109DF0F900F900F900F90DF91CF91FF
:103D50001F910F91FF90BF90AF909F908F9008950B
:103D60002F923F924F925F926F927F928F929F928B
:103D7000AF92BF92CF92DF92EF92FF920F931F9379
:103D8000CF93DF938DED882E81E0982EC3EDD2E0A6
:103D900098E8A92E94E0B92E0BEB12E0312C212CDF
:103DA000F40181914F010E94F512882309F44AC061
:103DB0000E9401136B017C01F3E03F1649F0F8010A
:103DC00020813181428153810E949ED26B017C010E
:103DD000F5012081318142815381C701B6010E94E2
:103DE0009ED22B013C012DEB37E346E855EB0E94B8
:103DF0007BD587FD0AC02DEB37E346E855E3C301C9
:103E0000B2010E9478D31816ECF4F3E03F120BC015
:103E1000C0929404D0929504E0929604F092970494
:103E2000222423940FC0A3019201688179818A81A1
:103E30009B810E949FD2688379838A839B83832D91
:103E40000E941F163394249684E0A80EB11C0C5FC8
:103E50001F4FE4E03E12A4CF21100E941714DF91FF
:103E6000CF911F910F91FF90EF90DF90CF90BF9077
:103E7000AF909F908F907F906F905F904F903F900A
:103E80002F9069CECF93DF93EDE7F5E06491EF01DA
:103E90002196662331F088E690E10E947311FE01BD
:103EA000F5CF60E08DE695E00E94891161E086E63D
:103EB00095E00E94891161E08BE595E00E948911EF
:103EC00061E08BE495E00E94891160E082E495E076
:103ED0000E94891161E088E395E00E94891160E009
:103EE0008EE295E00E94891160E086E295E00E94F2
:103EF000891160E088E195E00E94891160E08AE024
:103F000095E00E94891160E08BEF94E00E94891196
:103F100060E08DEE94E00E94891160E087ED94E00E
:103F20000E94891160E086EC94E00E94891160E0B3
:103F300081EB94E00E94891161E08EE994E0DF91C9
:103F4000CF910C948911CF92DF92EF92FF92CF9391
:103F500088EC90E00E94DA1581114EC084E40E9442
:103F6000A812882309F441C00E9401136B017C014F
:103F7000C1E020E030E0A9010E9478D3811101C0A6
:103F8000C0E0C0934F0920E030E0A901C701B601AD
:103F90000E9478D3882349F10E940113E0919E0288
:103FA00024E0E29FF0011124E657F64F608371830D
:103FB0008283938320E030E0A90160918A097091A7
:103FC0008B0980918C0990918D090E9478D3811181
:103FD0000CC080E090E0A0E4B0E480938A09909364
:103FE0008B09A0938C09B0938D09CF91FF90EF902E
:103FF000DF90CF900C94B16DCF91FF90EF90DF9058
:10400000CF900895CF9383E50E94F5128823A1F005
:104010000E9401136093AA097093AB098093AC09C5
:104020009093AD096093A2097093A3098093A409AA
:104030009093A509C0E001C0C1E080E50E94F5129F
:10404000882359F00E9401136093AA097093AB0969
:104050008093AC099093AD09C0E082E50E94F5120F
:10406000882359F00E9401136093A6097093A70951
:104070008093A8099093A909C0E084E50E94F512F5
:10408000882359F00E9401136093A2097093A30939
:104090008093A4099093A5092CC0CC2351F14091A1
:1040A000AA095091AB096091AC097091AD098AE8F9
:1040B00094E00E94997C4091A6095091A7096091D3
:1040C000A8097091A90987E894E00E94997C409121
:1040D000A2095091A3096091A4097091A50984E8EF
:1040E00094E00E94997C6AE088E690E1CF910C947C
:1040F0007311CF91089581E50E94A812882351F091
:104100000E9448136093E2097093E3098093E409E5
:104110009093E50983E50E94A812882351F00E943C
:1041200001136093AE097093AF098093B009909327
:10413000B10984E50E94A812882351F00E9401135E
:1041400060939E0970939F098093A0099093A109A1
:1041500088E50E94A812882351F00E940113609301
:104160008E0970938F09809390099093910989E546
:104170000E94A812882351F00E94011360939209B3
:104180007093930980939409909395098AE50E940E
:10419000A812882351F00E9401136093960970932E
:1041A0009709809398099093990985E40E94A81231
:1041B000882351F00E94011360939A0970939B0920
:1041C00080939C0990939D090895CF93DF93E3E931
:1041D000FFE06491EF012196662331F088E690E1DB
:1041E0000E947311FE01F5CF83E50E94A812882377
:1041F00021F00E94691380930601E4E7F4E06491E2
:10420000EF012196662331F088E690E10E94731158
:10421000FE01F5CF80910601811103C0ECE6F4E0C8
:1042200002C0E0E7F4E06491EF012196662331F0EB
:1042300088E690E10E947311FE01F5CFE4E6F4E018
:104240006491EF012196662331F088E690E10E94A7
:104250007311FE01F5CF2091BB023091BC02409159
:10426000BD025091BE026091AF027091B002809188
:10427000B1029091B2020E949FD2AB01BC0182E6D2
:1042800094E00E94997C2091BF023091C00240913D
:10429000C1025091C2026091B3027091B402809148
:1042A000B5029091B6020E949FD2AB01BC018FE58E
:1042B00094E00E94997C2091C3023091C402409105
:1042C000C5025091C6026091B7027091B802809108
:1042D000B9029091BA020E949FD2AB01BC018CE559
:1042E00094E00E94997CE4E5F4E06491EF0121966A
:1042F000662331F088E690E10E947311FE01F5CF4C
:104300002091BB023091BC024091BD025091BE028F
:1043100060910701709108018091090190910A0153
:104320000E949FD2AB01BC0182E594E00E94997C7F
:104330002091BF023091C0024091C1025091C2024F
:1043400060910B0170910C0180910D0190910E0113
:104350000E949FD2AB01BC018FE494E00E94997C43
:104360002091C3023091C4024091C5025091C6020F
:1043700060910F01709110018091110190911201D3
:104380000E949FD2AB01BC018CE494E00E94997C16
:104390006AE088E690E1DF91CF910C9473110F935E
:1043A0001F93CF93DF938DED90E00E94DA1581117A
:1043B00070C083E50E94F5128823B9F1C0919E0276
:1043C000D0E00E943813CC0FDD1FC65DDE4F79832D
:1043D000688380919E0290E0EC01CC0FDD1FCC0F32
:1043E000DD1F8E010A5D1E4F880F991FFC01E65DDF
:1043F000FE4F60817181072E000C880B990B0E9483
:104400001AD42AE037ED43E25CE30E94B6D5CA57DE
:10441000D64F288139814A815B810E94B6D5F80147
:10442000608371838283938334C0E3E9FFE0649106
:10443000EF012196662331F088E690E10E94731126
:10444000FE01F5CF65E488E690E10E94731160916A
:104450009E02605D88E690E10E947311E0919E02E9
:10446000F0E0EE0FFF1FE65DFE4F6081718184E496
:1044700094E00E945C7C65E288E690E10E94731102
:104480006AE088E690E1DF91CF911F910F910C9443
:104490007311DF91CF911F910F910895CF93DF9307
:1044A00085E40E94F512811110C080E50E94A812D7
:1044B000882391F00E94011360939F0F7093A00FC7
:1044C0008093A10F9093A20F07C00E9458138823D6
:1044D00061F3E9E9FFE072C089E40E94A812882331
:1044E00081F00E9401132CEA35EC47E25EE30E9462
:1044F000B6D560939B0F70939C0F80939D0F909304
:104500009E0F84E40E94A812882381F00E94011368
:104510002CEA35EC47E25EE30E947FD36093970F6D
:104520007093980F8093990F90939A0FE3E9FFE0AF
:104530006491EF012196662331F088E690E10E94B4
:104540007311FE01F5CF40919F0F5091A00F609124
:10455000A10F7091A20F80E494E00E94997C2CEA54
:1045600035EC47E25EE360919B0F70919C0F809168
:104570009D0F90919E0F0E947FD3AB01BC018CE3F5
:1045800094E00E94997C2CEA35EC47E25EE360916E
:10459000970F7091980F8091990F90919A0F0E94A8
:1045A000B6D5AB01BC0188E394E00E94997C6AE037
:1045B00088E690E1DF91CF910C9473116491EF0143
:1045C0002196662331F088E690E10E947311FE0186
:1045D000F5CFE6E2F4E06491EF012196662331F035
:1045E00088E690E10E947311FE01F5CFDF91CF9133
:1045F00008958F929F92AF92BF92EF92FF920F9386
:104600001F93CF93DF9300D000D0CDB7DEB785E402
:104610000E94F512882321F00E9438138B0102C0FA
:1046200000E010E083E40E94F512882321F00E944C
:104630003813F62E02C025E0F22E85E50E94F51211
:10464000882321F00E946913E82E04C085E50E94AA
:10465000A812E82E17FD07C0812C912C96E1A92EF7
:1046600093E4B92E06C0812C912C8CE8A82E82E40C
:10467000B82E83E50E94F512882321F00E940113D1
:104680004B015C01C501B4010E94E7D3011511057E
:1046900011F410929E02072E000C880B990B0E94B9
:1046A0001AD469837A838B839C832E2D4F2D602FA0
:1046B000CE0101960E940E8E0F900F900F900F90DA
:1046C000DF91CF911F910F91FF90EF90BF90AF902E
:1046D0009F908F9008952F923F924F925F926F928A
:1046E0007F928F929F92AF92BF92CF92DF92EF9282
:1046F000FF920F931F93CF93DF93CDB7DEB72E9723
:104700000FB6F894DEBF0FBECDBF41E061E081E09F
:104710000E94AE188111DAC001E019E088E894E047
:104720009E878D87FE0131965F0196EE892E98E077
:10473000992E1F01F8016591759185919491ED85F0
:10474000FE85C190D190E190F190FE87ED87A701A1
:1047500096010E949ED22B013C01F101608371837E
:104760008283938320E030E040EA51EC0E947BD5C5
:1047700087FD0AC020E030E040EA51E4C301B20105
:104780000E9478D318162CF4F401849118160CF4B6
:1047900093C0F101C190D190E190F1901F0120E010
:1047A00030E040EA51ECC701B6010E947BD587FD9D
:1047B0000BC020E030E040EA51E4C701B6010E949E
:1047C00078D318160CF039C0E9E9FFE064918F0145
:1047D0000F5F1F4F611103C0E8E0F4E006C088E6F8
:1047E00090E10E947311F801F1CF64918F010F5F86
:1047F0001F4F662331F088E690E10E947311F801A3
:10480000F4CF8AEF93E02E960FB6F894DEBF0FBE7A
:10481000CDBFDF91CF911F910F91FF90EF90DF906F
:10482000CF90BF90AF909F908F907F906F905F9050
:104830004F903F902F900C948E9A0C5F1F4FFFEF7C
:104840008F1A9F0A89E00D30180709F073CF87ECA3
:10485000E82E82E0F82E10E0F50181919191A1916E
:10486000B1915F01F70181939193A193B1937F017E
:10487000812F0E941F161F5F133071F76CD960E003
:104880008AEE93E02E960FB6F894DEBF0FBECDBF32
:10489000DF91CF911F910F91FF90EF90DF90CF901C
:1048A000BF90AF909F908F907F906F905F904F9050
:1048B0003F902F900C94F899F7FAF094F7F8F09451
:1048C000F101C082D182E282F38263CF2E960FB6CD
:1048D000F894DEBF0FBECDBFDF91CF911F910F9136
:1048E000FF90EF90DF90CF90BF90AF909F908F9010
:1048F0007F906F905F904F903F902F900895CF934F
:10490000DF930E94A1648823D1F0E3E9FFE0649182
:10491000EF012196662331F088E690E10E94731141
:10492000FE01F5CFEFEDF3E06491EF0121966623F0
:1049300031F088E690E10E947311FE01F5CFDF911E
:10494000CF9108951F93CF93DF93182FE3E9FFE0F2
:104950006491EF012196662331F088E690E10E9490
:104960007311FE01F5CF64E588E690E10E947311B2
:10497000412F50E060E070E020E088E690E10E9486
:104980006BC960E288E690E10E947311EEEBF3E000
:104990006491EF012196662331F088E690E10E9450
:1049A0007311FE01F5CFDF91CF911F910895CF9341
:1049B000DF93C82F0E94E26ECC2321F08C2FDF9171
:1049C000CF91C0CF1092AC02E3E9FFE06491EF0118
:1049D0002196662331F088E690E10E947311FE0172
:1049E000F5CF6091AC0270E080E193E00E945C7CC6
:1049F0006AE088E690E1DF91CF910C947311CF9338
:104A0000DF93E0916C04F0E0E257FD4F8081882352
:104A1000A1F0E0EDF2E06491EF012196662331F020
:104A200088E690E10E947311FE01F5CF6AE088E606
:104A300090E1DF91CF910C947311DF91CF910895A4
:104A4000CF92DF92EF92FF92CF93DF9320910601F6
:104A5000222309F485C0EC01C090AF02D090B002CF
:104A6000E090B102F090B202A701960168817981CD
:104A70008A819B810E9478D387FF04C0C882D98233
:104A8000EA82FB82C090B302D090B402E090B502FB
:104A9000F090B602A70196016C817D818E819F8185
:104AA0000E9478D387FF04C0CC82DD82EE82FF8231
:104AB000C0900701D0900801E0900901F0900A0130
:104AC000A7019601688179818A819B810E947BD5AB
:104AD000181624F4C882D982EA82FB82C0900B01A6
:104AE000D0900C01E0900D01F0900E01A70196010D
:104AF0006C817D818E819F810E947BD5181624F464
:104B0000CC82DD82EE82FF82C090B702D090B802E4
:104B1000E090B902F090BA02A70196016885798504
:104B20008A859B850E9478D387FF04C0C886D98672
:104B3000EA86FB86C0900F01D0901001E090110131
:104B4000F0901201A7019601688579858A859B8579
:104B50000E947BD5181624F4C886D986EA86FB867F
:104B6000DF91CF91FF90EF90DF90CF900895CF939A
:104B7000DF9380E00E94806EC2E9D2E0688379838F
:104B80008A839B8381E00E94806E6C837D838E8309
:104B90009F8382E00E94806E688779878A879B87DF
:104BA000DF91CF910895CF93DF93E1DF6BE588E646
:104BB00090E10E947311C2E9D2E0488159816A8173
:104BC0007B8122E088E690E10E94E4C94C815D810E
:104BD0006E817F8184E393E00E94997C48855985AA
:104BE0006A857B8581E393E00E94997C6DE588E688
:104BF00090E10E9473116AE088E690E1DF91CF9125
:104C00000C9473110E94166E0E94E26EB0DF0E9437
:104C100069110C9478138F929F92AF92BF92CF92AA
:104C2000DF92EF92FF920F931F93CF93DF93CDB755
:104C3000DEB728970FB6F894DEBF0FBECDBF88E76A
:104C400094E0FEDE8091980483FD6AC08090840425
:104C500090908504A0908604B0908704C09094043E
:104C6000D0909504E0909604F0909704A7019601E7
:104C7000C501B4010E9478D3882309F451C0A7016B
:104C80009601C501B4010E949ED26B017C0120E017
:104C900030E0A9010E947BD587FF04C0C701B6019F
:104CA000905802C0C701B601E091AC0224E0E29F37
:104CB000F0011124EA5DFE4F208131814281538150
:104CC0000E94B6D520E030E048E453E40E947BD552
:104CD000181634F58092940490929504A09296044C
:104CE000B0929704E3E9FFE064917F018FEFE81A47
:104CF000F80A662331F088E690E10E947311F7010B
:104D0000F3CFE1EBF2E064917F019FEFE91AF90A3A
:104D1000662331F088E690E10E947311F701F3CF2A
:104D20006091130170911401072E000C880B990BF0
:104D30000E941AD42091150130911601409117015B
:104D4000509118010E94B6D52AE037ED43E25CE3AA
:104D50000E94B6D56D837E838F839887E090AC02E6
:104D600019821A821B821C82CE0101966C018E016F
:104D70000B5F1F4F24E834E040E854E06CE774E038
:104D800088E794E00E94B87B80E1E8E7F4E0A8E8D7
:104D9000B4E001900D928A95E1F728960FB6F89449
:104DA000DEBF0FBECDBFDF91CF911F910F91FF905E
:104DB000EF90DF90CF90BF90AF909F908F9008952D
:104DC00077987698479843980895439A089583E58D
:104DD0000E94F512882399F00E94011320E030E030
:104DE0004AE754E40E94B6D50E94ECD360930101D7
:104DF000709302018093030190930401089588E564
:104E00000E94A812811111C089E50E94A812811187
:104E10000CC08AE50E94A812811107C085E40E9497
:104E2000A812811102C00C946F6E0E94E26E88E598
:104E30000E94A812882331F0779A809176048E7FA1
:104E40008093760489E50E94A812882331F0769A2F
:104E5000809176048D7F809376048AE50E94A81263
:104E6000882331F0479A809176048B7F8093760473
:104E700085E40E94A8128111A8CF0895779A8091A5
:104E800076048E7F80937604769A809176048D7F67
:104E900080937604479A809176048B7F8093760482
:104EA00094CF8C01E9E9FFE06491EF01219666233C
:104EB00031F088E690E10E947311FE01F5CFEEE437
:104EC000F2E06491EF012196662331F088E690E1EB
:104ED0000E947311FE01F5CF0E942D8ACFDFC80119
:104EE0000E94419D2FEF8BE49DE121508040904036
:104EF000E1F700C00000F8942FEF84E39CE021501C
:104F000080409040E1F700C000000E942D8AA895E3
:104F1000FECF0F931F93CF93DF9380E885BF85BFAC
:104F200040E950ED63E070E088E690E10E946DD1C9
:104F3000E7E4F2E06491EF012196662331F088E620
:104F400090E10E947311FE01F5CFE3E9FFE0649167
:104F5000EF012196662331F088E690E10E947311FB
:104F6000FE01F5CFC4B7C0FF0EC0EEE3F2E06491DE
:104F70008F010F5F1F4F662331F088E690E10E949A
:104F80007311F801F4CFC1FF0EC0EDE2F2E06491BD
:104F90008F010F5F1F4F662331F088E690E10E947A
:104FA0007311F801F4CFC2FF0EC0EBE1F2E064919F
:104FB0008F010F5F1F4F662331F088E690E10E945A
:104FC0007311F801F4CFC3FF0EC0EAE0F2E0649180
:104FD0008F010F5F1F4F662331F088E690E10E943A
:104FE0007311F801F4CFC5FF0DC0E9EFF1E0649152
:104FF000EF012196662331F088E690E10E9473115B
:10500000FE01F5CF14BEE2EFF1E06491EF012196CD
:10501000662331F088E690E10E947311FE01F5CF1E
:1050200060E288E690E10E947311E9EEF1E064919C
:10503000EF012196662331F088E690E10E9473111A
:10504000FE01F5CF6AE088E690E10E947311E3E982
:10505000FFE06491EF012196662331F088E690E14C
:105060000E947311FE01F5CFE9EDF1E06491EF01CB
:105070002196662331F088E690E10E947311FE01CB
:10508000F5CFEEECF1E06491EF012196662331F06B
:1050900088E690E10E947311FE01F5CFEBEAF1E0A2
:1050A0006491EF012196662331F088E690E10E9439
:1050B0007311FE01F5CFE3E9FFE06491EF01219662
:1050C000662331F088E690E10E947311FE01F5CF6E
:1050D000E4E9F1E06491EF012196662331F088E67E
:1050E00090E10E947311FE01F5CFE3E9FFE06491C6
:1050F000EF012196662331F088E690E10E9473115A
:10510000FE01F5CF0E94BB44BC0185E891E00E94FE
:105110005C7C60ED74E08EE691E00E945C7C6AE06D
:1051200088E690E10E94731181E080938E02809363
:105130008F0280939002809391020E94A8648CE079
:10514000E7ECF2E0A8E8B4E001900D928A95E1F76F
:105150000E9478138BEA9FE00E9482890E94B186A8
:105160000E94EA640E94DC7F0E94EA9A0E94329ABE
:105170000E945DC00E94D3C789E994E0DF91CF917E
:105180001F910F910C94BA5389E994E00C94A249B1
:10519000EF92FF920F931F93CF93DF9385EE91E0F1
:1051A000909355068093540687E596E00E94C611B9
:1051B000C2E1D6E006EE14E085EEE82E81E0F82E9E
:1051C000F982E8828E81882321F0CE0103960E9425
:1051D00032406E970C171D0799F7C5EED1E0D093BA
:1051E000E704C093E60489EE94E00E94C611D093D0
:1051F000C904C093C8048BEC94E0DF91CF911F9158
:105200000F91FF90EF900C94C611CF93DF9388E637
:1052100090E10E94D4D1E3EDF2E06491EF01219698
:10522000662331F088E690E10E947311FE01F5CF0C
:1052300040916E0450916F046091700470917104FC
:105240004F5F5F4F6F4F7F4F88E690E10E94D7C955
:105250006AE088E690E10E947311DF91CF91CFCB95
:10526000FF920F931F93CF93DF93F82E092F162FE2
:10527000E9E9FFE06491EF012196662331F088E6C9
:1052800090E10E947311FE01F5CFEF2DF02F649194
:10529000EF012196662331F088E690E10E947311B8
:1052A000FE01F5CF40916E0450916F04609170043F
:1052B0007091710488E690E10E94D7C96AE088E69F
:1052C00090E10E9473111111A0DF1092A8021092B8
:1052D000A702DF91CF911F910F91FF900895CF9278
:1052E000DF92EF92FF920F931F93CF93DF93809102
:1052F0006D04843008F03DC188E690E10E942BD017
:10530000AC0197FD36C1982F2091A7023091A802D9
:105310008A3019F09D3009F0F8C01092280221154A
:10532000310519F40E94C78BE2CFF901E75DFD4F0B
:1053300010821092A8021092A702C9E2D2E0FE01E8
:105340008191803211F4EF01FACF8E3409F079C0E7
:10535000209709F476C061EE78E0CE010E9448DA29
:105360008C01892B41F06EE470E0CE0104960E941E
:1053700096DA009709F4CE014AE050E060E070E070
:1053800001960E94D3D76093720470937304809344
:10539000740490937504C0906E04D0906F04E090F4
:1053A0007004F09071042FEFC21AD20AE20AF20AD6
:1053B0006C157D058E059F0531F0012B21F461E010
:1053C0008EEA98E04CC06AE270E0CE010E94CEDA2C
:1053D0009C01009709F1982F9C1B10E0992339F04C
:1053E0009150FE01E90FF11D80811827F7CF4AE0A7
:1053F00050E060E070E0C90101960E94D3D7012F10
:1054000010E020E030E0601771078207930741F059
:1054100061E08FE898E023C061E085E698E01FC076
:105420008091720490917304A0917404B0917504FA
:1054300080936E0490936F04A0937004B0937104F2
:1054400017C080919904882399F06AEC71E0CE012D
:105450000E94A1DA892B61F061E08BE398E0DF9193
:10546000CF911F910F91FF90EF90DF90CF90F8CEEA
:1054700080911901811126C067E470E0CE010E947D
:1054800096DA0097F9F04AE050E060E070E00196AB
:105490000E94D3D7643071058105910598F4E4EC3E
:1054A000F7E064918F010F5F1F4F662331F088E6AC
:1054B00090E10E947311F801F4CF60E08AEB97E06D
:1054C0000E94F8996EEC71E0CE010E94A1DA892B5E
:1054D00021F4109205011092AA0263ED71E0CE0151
:1054E0000E94A1DA892B19F481EB97E0DADC68EDF0
:1054F00071E0CE010E94A1DA892B09F483DB61E01F
:1055000089E292E00E943814F2CE2F3531050CF07A
:10551000EECE9C35D1F488E690E10E942BD097FD29
:10552000E6CE209128022111E2CE2091A7023091EF
:10553000A802A9014F5F5F4F5093A8024093A702B2
:10554000F901E75DFD4F8083D2CE9B3319F481E0F2
:1055500080932802809128028111C9CEC901019649
:105560009093A8028093A702F901E75DFD4F408365
:10557000BECEDF91CF911F910F91FF90EF90DF9002
:10558000CF9008950E947F14811103C0A8DE0C946F
:10559000DC1408950F931F93CF93DF93C82F80914E
:1055A0006D04843008F4EEDF0FB6F89480915D103E
:1055B00090915E10A0915F10B09160100FBE0091AD
:1055C0009F021091A0022091A1023091A202011528
:1055D00011052105310589F14091A3025091A402E2
:1055E0006091A5027091A602400F511F621F731FA8
:1055F0008C019D01041B150B260B370B37FD1DC0BD
:10560000E9E9FFE06491EF012196662331F088E635
:1056100090E10E947311FE01F5CF60914D097091E8
:105620004E0987E792E00E94DB7C6AE088E690E121
:105630000E9473118EE692E034DC0091010110911A
:10564000020120910301309104010115110521058A
:105650003105B1F150910C0A4091090A541749F0F3
:105660008093A3029093A402A093A502B093A602F4
:1056700027C0C11125C04091A3025091A40260919E
:10568000A5027091A602400F511F621F731F841B59
:10569000950BA60BB70BB7FD13C0779A80917604D4
:1056A0008E7F80937604769A809176048D7F8093A6
:1056B0007604479A809176048B7F8093760485DB0D
:1056C000DF91CF911F910F910C948B6D0E94F59AF1
:1056D0000E94E41980E05EDF0E94C78B8091A902DE
:1056E000811102C00C949F920895CF93DF93EC0137
:1056F000CE010E945414811102C0E8DFF9CFDF917E
:10570000CF910895CF92DF92EF92FF920FB6F89467
:10571000C0905D10D0905E10E0905F10F09060102F
:105720000FBEC60ED71EE81EF91E0FB6F894809164
:105730005D1090915E10A0915F10B09160100FBE4F
:105740008C199D09AE09BF09B7FF02C0BFDFEDCFBD
:10575000FF90EF90DF90CF900895CF92DF92EF927D
:10576000FF9280E50E94F512882329F00E944813D9
:105770006B017C0103C0C12CD12C760183E50E9412
:10578000F512882361F00E94011320E030E04AE71F
:1057900054E40E94B6D50E94ECD36B017C010E94B8
:1057A000E26E0E94CB99811105C060E08AE497E027
:1057B0000E94F899C701B601FF90EF90DF90CF905B
:1057C000A1CFCF92DF92EF92FF920F931F93CF93CF
:1057D00000914B0910914C0980E50E94F512882335
:1057E00059F00E9448136B017C01C1E0672B682BC4
:1057F000692B31F4C0E004C0C0E0C12CD12C76018B
:1058000083E50E94F512882309F46FC00E940113FA
:1058100020E030E04AE754E40E94B6D50E94ECD381
:105820006B017C01C1110BC0672B682B692B39F40C
:105830000115110521F0F8018081811102C0C0E03D
:1058400001C0C1E00E94E26ECC2329F061E0C801F2
:105850000E94D29905C060E087E397E00E94F89922
:1058600083E080938D0281E08093AA02C114D10469
:10587000E104F10429F10FB6F89480915D10909144
:105880005E10A0915F10B09160100FBEC80ED91EBF
:10589000EA1EFB1E0FB6F89480915D1090915E1089
:1058A000A0915F10B09160100FBE8C199D09AE09D8
:1058B000BF09B7FF0BC08091AA02811119C006C0B1
:1058C0008091AA02882311F001DFFACF0E94329A58
:1058D0001092AA0281E080938D02CF911F910F91C7
:1058E000FF90EF90DF90CF900895C111A8CFA0CF87
:1058F000EDDED0CF2F923F924F925F926F927F92C8
:105900008F929F92AF92BF92CF92DF92EF92FF92CF
:105910000F931F93CF93DF93CDB7DEB762970FB688
:10592000F894DEBF0FBECDBF8DE690E00E94DA1581
:105930008111D9C18091980483FDD5C183E50E946E
:10594000F5128F83811107C082E50E94F5128983C9
:10595000882309F452C00E9401130091380110916C
:1059600039010F5011090E94E7D3980160177107A0
:105970000CF49B013093A40F2093A30F80E00E94AE
:10598000DA890E94011320E030E0A9010E9478D357
:1059900018160CF49FC10E9475860E94329A60917D
:1059A000A30F7091A40F072E000C880B990B0E9477
:1059B0001AD46B017C018090A70F9090A80FA09043
:1059C000A90FB090AA0FA50194010E947BD51816CB
:1059D0000CF483C12F81211183C1A5019401C7015A
:1059E000B6010E947BD518160CF477C18DEB96E0BA
:1059F00060E00E94F89931E039830E94C7705981B4
:105A0000552309F470C181E0809305011B821C823B
:105A10001D821E8219861A861B861C861A821D8686
:105A20008CE38E879CE19F87A6E4A88B1A8A312C91
:105A3000B0E8B9832FEB298B812C912C5401609114
:105A4000A30F7091A40F072E000C880B990B0E94D6
:105A50001AD47B018C019B01AC016A89732D898169
:105A600099890E9478D3882309F441C02091A70F17
:105A70003091A80F4091A90F5091AA0F8F81B701C3
:105A800081110CC0C8010E9478D3881F8827881F05
:105A90008A83EA8A3F2C0983198B29C0C8010E9496
:105AA00078D387FF1FC080910501882309F41BC1AB
:105AB00062960FB6F894DEBF0FBECDBFDF91CF91D7
:105AC0001F910F91FF90EF90DF90CF90BF90AF901C
:105AD0009F908F907F906F905F904F903F902F900E
